{
  "abi": [
    {
      "inputs": [],
      "stateMutability": "nonpayable",
      "type": "constructor"
    },
    {
      "anonymous": false,
      "inputs": [
        {
          "indexed": true,
          "internalType": "address",
          "name": "user",
          "type": "address"
        },
        {
          "indexed": true,
          "internalType": "uint256",
          "name": "pid",
          "type": "uint256"
        },
        {
          "indexed": false,
          "internalType": "uint256",
          "name": "depositAmount",
          "type": "uint256"
        },
        {
          "indexed": false,
          "internalType": "uint256",
          "name": "ticketAmount",
          "type": "uint256"
        },
        {
          "indexed": false,
          "internalType": "uint256",
          "name": "lockTimestamp",
          "type": "uint256"
        }
      ],
      "name": "Deposit",
      "type": "event"
    },
    {
      "anonymous": false,
      "inputs": [
        {
          "indexed": true,
          "internalType": "address",
          "name": "previousOwner",
          "type": "address"
        },
        {
          "indexed": true,
          "internalType": "address",
          "name": "newOwner",
          "type": "address"
        }
      ],
      "name": "OwnershipTransferred",
      "type": "event"
    },
    {
      "anonymous": false,
      "inputs": [
        {
          "indexed": true,
          "internalType": "address",
          "name": "user",
          "type": "address"
        },
        {
          "indexed": false,
          "internalType": "uint256",
          "name": "amount",
          "type": "uint256"
        }
      ],
      "name": "Withdraw",
      "type": "event"
    },
    {
      "inputs": [
        {
          "internalType": "uint256",
          "name": "_pid",
          "type": "uint256"
        },
        {
          "internalType": "uint256",
          "name": "lockDay",
          "type": "uint256"
        },
        {
          "internalType": "uint256",
          "name": "rewardRatio",
          "type": "uint256"
        },
        {
          "internalType": "uint256",
          "name": "decimal",
          "type": "uint256"
        }
      ],
      "name": "addPool",
      "outputs": [],
      "stateMutability": "nonpayable",
      "type": "function"
    },
    {
      "inputs": [
        {
          "internalType": "address",
          "name": "_token",
          "type": "address"
        }
      ],
      "name": "balanceOf",
      "outputs": [
        {
          "internalType": "uint256",
          "name": "",
          "type": "uint256"
        }
      ],
      "stateMutability": "view",
      "type": "function"
    },
    {
      "inputs": [
        {
          "internalType": "address",
          "name": "_token",
          "type": "address"
        },
        {
          "internalType": "uint256",
          "name": "_amount",
          "type": "uint256"
        },
        {
          "internalType": "uint256",
          "name": "_id",
          "type": "uint256"
        },
        {
          "internalType": "bytes32[]",
          "name": "_proofs",
          "type": "bytes32[]"
        }
      ],
      "name": "claim",
      "outputs": [],
      "stateMutability": "nonpayable",
      "type": "function"
    },
    {
      "inputs": [
        {
          "internalType": "uint256",
          "name": "_pid",
          "type": "uint256"
        },
        {
          "internalType": "uint256",
          "name": "_amount",
          "type": "uint256"
        }
      ],
      "name": "deposit",
      "outputs": [],
      "stateMutability": "nonpayable",
      "type": "function"
    },
    {
      "inputs": [
        {
          "internalType": "uint256",
          "name": "_pid",
          "type": "uint256"
        }
      ],
      "name": "getDepositByPoolId",
      "outputs": [
        {
          "internalType": "uint256",
          "name": "",
          "type": "uint256"
        },
        {
          "internalType": "uint256",
          "name": "",
          "type": "uint256"
        },
        {
          "internalType": "uint256",
          "name": "",
          "type": "uint256"
        }
      ],
      "stateMutability": "view",
      "type": "function"
    },
    {
      "inputs": [],
      "name": "getGiveOutAddress",
      "outputs": [
        {
          "internalType": "address",
          "name": "",
          "type": "address"
        }
      ],
      "stateMutability": "view",
      "type": "function"
    },
    {
      "inputs": [],
      "name": "getLpAddress",
      "outputs": [
        {
          "internalType": "address",
          "name": "",
          "type": "address"
        }
      ],
      "stateMutability": "view",
      "type": "function"
    },
    {
      "inputs": [],
      "name": "getLpBalance",
      "outputs": [
        {
          "internalType": "uint256",
          "name": "",
          "type": "uint256"
        }
      ],
      "stateMutability": "view",
      "type": "function"
    },
    {
      "inputs": [],
      "name": "getManagerAddress",
      "outputs": [
        {
          "internalType": "address",
          "name": "",
          "type": "address"
        }
      ],
      "stateMutability": "view",
      "type": "function"
    },
    {
      "inputs": [
        {
          "internalType": "uint256",
          "name": "_pid",
          "type": "uint256"
        }
      ],
      "name": "getPoolById",
      "outputs": [
        {
          "components": [
            {
              "internalType": "uint256",
              "name": "id",
              "type": "uint256"
            },
            {
              "internalType": "uint256",
              "name": "lockDay",
              "type": "uint256"
            },
            {
              "internalType": "uint256",
              "name": "rewardRatio",
              "type": "uint256"
            },
            {
              "internalType": "uint256",
              "name": "decimal",
              "type": "uint256"
            }
          ],
          "internalType": "struct MM.PoolInfo",
          "name": "",
          "type": "tuple"
        }
      ],
      "stateMutability": "view",
      "type": "function"
    },
    {
      "inputs": [],
      "name": "getValidWithdrawLp",
      "outputs": [
        {
          "internalType": "uint256",
          "name": "",
          "type": "uint256"
        }
      ],
      "stateMutability": "view",
      "type": "function"
    },
    {
      "inputs": [
        {
          "internalType": "address",
          "name": "",
          "type": "address"
        },
        {
          "internalType": "address",
          "name": "",
          "type": "address"
        },
        {
          "internalType": "uint256",
          "name": "",
          "type": "uint256"
        }
      ],
      "name": "isClaimed",
      "outputs": [
        {
          "internalType": "bool",
          "name": "",
          "type": "bool"
        }
      ],
      "stateMutability": "view",
      "type": "function"
    },
    {
      "inputs": [],
      "name": "merkleRoot",
      "outputs": [
        {
          "internalType": "bytes32",
          "name": "",
          "type": "bytes32"
        }
      ],
      "stateMutability": "view",
      "type": "function"
    },
    {
      "inputs": [],
      "name": "owner",
      "outputs": [
        {
          "internalType": "address",
          "name": "",
          "type": "address"
        }
      ],
      "stateMutability": "view",
      "type": "function"
    },
    {
      "inputs": [],
      "name": "renounceOwnership",
      "outputs": [],
      "stateMutability": "nonpayable",
      "type": "function"
    },
    {
      "inputs": [
        {
          "internalType": "address",
          "name": "_addr",
          "type": "address"
        }
      ],
      "name": "setGiveOutAddress",
      "outputs": [],
      "stateMutability": "nonpayable",
      "type": "function"
    },
    {
      "inputs": [
        {
          "internalType": "address",
          "name": "_addr",
          "type": "address"
        }
      ],
      "name": "setLpAddress",
      "outputs": [],
      "stateMutability": "nonpayable",
      "type": "function"
    },
    {
      "inputs": [
        {
          "internalType": "address",
          "name": "_addr",
          "type": "address"
        }
      ],
      "name": "setManagerAddress",
      "outputs": [],
      "stateMutability": "nonpayable",
      "type": "function"
    },
    {
      "inputs": [
        {
          "internalType": "bytes32",
          "name": "_merkleRoot",
          "type": "bytes32"
        }
      ],
      "name": "setMerkleRoot",
      "outputs": [],
      "stateMutability": "nonpayable",
      "type": "function"
    },
    {
      "inputs": [
        {
          "internalType": "address",
          "name": "_token",
          "type": "address"
        },
        {
          "internalType": "uint256",
          "name": "_amount",
          "type": "uint256"
        },
        {
          "internalType": "uint256",
          "name": "_id",
          "type": "uint256"
        }
      ],
      "name": "sysTransfer",
      "outputs": [],
      "stateMutability": "nonpayable",
      "type": "function"
    },
    {
      "inputs": [
        {
          "internalType": "address",
          "name": "newOwner",
          "type": "address"
        }
      ],
      "name": "transferOwnership",
      "outputs": [],
      "stateMutability": "nonpayable",
      "type": "function"
    },
    {
      "inputs": [],
      "name": "withdraw",
      "outputs": [],
      "stateMutability": "nonpayable",
      "type": "function"
    },
    {
      "inputs": [],
      "name": "withdrawAllLp",
      "outputs": [],
      "stateMutability": "nonpayable",
      "type": "function"
    },
    {
      "inputs": [
        {
          "internalType": "address",
          "name": "_token",
          "type": "address"
        }
      ],
      "name": "withdrawToken",
      "outputs": [],
      "stateMutability": "nonpayable",
      "type": "function"
    }
  ],
  "bytecode": {
    "object": "0x6080604052600680546001600160a01b03191673d690fcc180913403a3ac7b19fd99a669f31b2f3f17905560016009553480156200003c57600080fd5b506200004833620000c9565b60038054336001600160a01b031991821681179092556007805490911690911790556200007462000119565b6000604051620000849062000258565b604051809103906000f080158015620000a1573d6000803e3d6000fd5b50600880546001600160a01b0319166001600160a01b03929092169190911790555062000266565b600080546001600160a01b038381166001600160a01b0319831681178455604051919092169283917f8be0079c531659141344cd1fd0a4f28419497f9722a3daafe3b4186f6b6457e09190a35050565b6200012d60016007620f17a06009620001a8565b620001416002600e6211896c6009620001a8565b620001556003601e621431a36009620001a8565b620001696004605a621a92276009620001a8565b6200017d600560b462161b646009620001a8565b620001926006610168620eaaca6009620001a8565b620001a660076001620eaaca6009620001a8565b565b620001b2620001f9565b604080516080810182528581526020808201958652818301948552606082019384526000968752600490529420935184559151600184015551600283015551600390910155565b6000546001600160a01b03163314620001a65760405162461bcd60e51b815260206004820181905260248201527f4f776e61626c653a2063616c6c6572206973206e6f7420746865206f776e6572604482015260640160405180910390fd5b610c658062001ba883390190565b61193280620002766000396000f3fe608060405234801561001057600080fd5b50600436106101585760003560e01c80638c538ed4116100c3578063c162d7da1161007c578063c162d7da146102ce578063d12acf73146102df578063d1e9a5fd14610323578063e2bbb15814610334578063edb4e5ac14610347578063f2fde38b1461037557600080fd5b80638c538ed4146102625780638c6e2e771461026a5780638da5cb5b1461028f578063b3f48f49146102a0578063b7c7c4e0146102b3578063b8cdff18146102c657600080fd5b806370a082311161011557806370a0823114610206578063715018a6146102195780637610fbe7146102215780637cb64759146102345780638421403d14610247578063894760691461024f57600080fd5b80630bc59b381461015d578063172bd6de146101ac5780632eb4a7ab146101c15780633ccfd60b146101d857806341431908146101e05780636f5e0212146101f3575b600080fd5b61017061016b366004611596565b610388565b6040516101a391908151815260208083015190820152604080830151908201526060918201519181019190915260800190565b60405180910390f35b6101bf6101ba3660046115cb565b610448565b005b6101ca60015481565b6040519081526020016101a3565b6101bf610675565b6101bf6101ee366004611662565b610875565b6101bf610201366004611662565b61089f565b6101ca610214366004611662565b6108c9565b6101bf61093d565b6101bf61022f366004611662565b610951565b6101bf610242366004611596565b61097b565b6101ca610988565b6101bf61025d366004611662565b6109ff565b6101bf610af0565b6003546001600160a01b03165b6040516001600160a01b0390911681526020016101a3565b6000546001600160a01b0316610277565b6101bf6102ae36600461167d565b610c2b565b6101bf6102c13660046116b0565b610dd5565b6101ca610e24565b6007546001600160a01b0316610277565b6103136102ed3660046116e2565b600260209081526000938452604080852082529284528284209052825290205460ff1681565b60405190151581526020016101a3565b6006546001600160a01b0316610277565b6101bf61034236600461171e565b610f75565b61035a610355366004611596565b61120e565b604080519384526020840192909252908201526060016101a3565b6101bf610383366004611662565b6113bd565b6103b36040518060800160405280600081526020016000815260200160008152602001600081525090565b6000828152600460205260409020546104035760405162461bcd60e51b815260206004820152600d60248201526c506f6f6c20696e76616c69642160981b60448201526064015b60405180910390fd5b50600090815260046020908152604091829020825160808101845281548152600182015492810192909252600281015492820192909252600390910154606082015290565b3360009081526002602090815260408083206001600160a01b0389168452825280832086845290915290205460ff16156104b75760405162461bcd60e51b815260206004820152601060248201526f416c726561647920636c61696d65642160801b60448201526064016103fa565b6040516bffffffffffffffffffffffff1933606090811b8216602084015287901b166034820152604881018590526068810184905260009060880160405160208183030381529060405280519060200120905061054b838380806020026020016040519081016040528093929190818152602001838360200280828437600092019190915250506001549150849050611436565b61058c5760405162461bcd60e51b815260206004820152601260248201527156616c69646174696f6e206661696c65642160701b60448201526064016103fa565b3360008181526002602090815260408083206001600160a01b038b1680855290835281842089855290925291829020805460ff19166001179055905163a9059cbb60e01b81526004810192909252602482018790529063a9059cbb906044016020604051808303816000875af115801561060a573d6000803e3d6000fd5b505050506040513d601f19601f8201168201806040525081019061062e9190611740565b61066d5760405162461bcd60e51b815260206004820152601060248201526f5472616e73666572206661696c65642160801b60448201526064016103fa565b505050505050565b336000908152600560205260408120805490914291815b81811015610773578481815481106106a6576106a6611762565b90600052602060002090600402016002015484101580156106ed57508481815481106106d4576106d4611762565b600091825260209091206003600490920201015460ff16155b156107615761072885828154811061070757610707611762565b9060005260206000209060040201600101548461144c90919063ffffffff16565b9250600185828154811061073e5761073e611762565b60009182526020909120600490910201600301805460ff19169115159190911790555b8061076b8161178e565b91505061068c565b50600082116107c45760405162461bcd60e51b815260206004820152601860248201527f56616c6964416d6f756e7420696e73756666696369656e74000000000000000060448201526064016103fa565b60065460405163a9059cbb60e01b8152336004820152602481018490526001600160a01b039091169063a9059cbb906044016020604051808303816000875af1158015610815573d6000803e3d6000fd5b505050506040513d601f19601f820116820180604052508101906108399190611740565b5060405182815233907f884edad9ce6fa2440d8a54cc123490eb96d2768479d49ff9c7366125a94243649060200160405180910390a250505050565b61087d611458565b600780546001600160a01b0319166001600160a01b0392909216919091179055565b6108a7611458565b600680546001600160a01b0319166001600160a01b0392909216919091179055565b6040516370a0823160e01b815230600482015260009081906001600160a01b038416906370a0823190602401602060405180830381865afa158015610912573d6000803e3d6000fd5b505050506040513d601f19601f8201168201806040525081019061093691906117a7565b9392505050565b610945611458565b61094f60006114b2565b565b610959611458565b600380546001600160a01b0319166001600160a01b0392909216919091179055565b610983611458565b600155565b6006546040516370a0823160e01b815230600482015260009182916001600160a01b03909116906370a0823190602401602060405180830381865afa1580156109d5573d6000803e3d6000fd5b505050506040513d601f19601f820116820180604052508101906109f991906117a7565b92915050565b610a07611458565b6040516370a0823160e01b81523060048201526000906001600160a01b038316906370a0823190602401602060405180830381865afa158015610a4e573d6000803e3d6000fd5b505050506040513d601f19601f82011682018060405250810190610a7291906117a7565b60075460405163a9059cbb60e01b81526001600160a01b0391821660048201526024810183905291925083169063a9059cbb906044016020604051808303816000875af1158015610ac7573d6000803e3d6000fd5b505050506040513d601f19601f82011682018060405250810190610aeb9190611740565b505050565b610af8611458565b6006546040516370a0823160e01b81523060048201526000916001600160a01b0316906370a0823190602401602060405180830381865afa158015610b41573d6000803e3d6000fd5b505050506040513d601f19601f82011682018060405250810190610b6591906117a7565b905060008111610bae5760405162461bcd60e51b815260206004820152601460248201527310985b185b98d9481a5b9cdd59999a58da595b9d60621b60448201526064016103fa565b60065460075460405163a9059cbb60e01b81526001600160a01b0391821660048201526024810184905291169063a9059cbb906044016020604051808303816000875af1158015610c03573d6000803e3d6000fd5b505050506040513d601f19601f82011682018060405250810190610c279190611740565b5050565b6003546001600160a01b03163314610c855760405162461bcd60e51b815260206004820152601760248201527f466976654f75744164647265737320696e76616c69642100000000000000000060448201526064016103fa565b3360009081526002602090815260408083206001600160a01b0387168452825280832084845290915290205460ff1615610cf45760405162461bcd60e51b815260206004820152601060248201526f416c726561647920636c61696d65642160801b60448201526064016103fa565b3360008181526002602090815260408083206001600160a01b03881680855290835281842086855290925291829020805460ff19166001179055905163a9059cbb60e01b81526004810192909252602482018490529063a9059cbb906044016020604051808303816000875af1158015610d72573d6000803e3d6000fd5b505050506040513d601f19601f82011682018060405250810190610d969190611740565b610aeb5760405162461bcd60e51b815260206004820152601060248201526f5472616e73666572206661696c65642160801b60448201526064016103fa565b610ddd611458565b604080516080810182528581526020808201958652818301948552606082019384526000968752600490529420935184559151600184015551600283015551600390910155565b336000908152600560209081526040808320805482518185028101850190935280835284938493929190849084015b82821015610eac576000848152602090819020604080516080810182526004860290920180548352600180820154848601526002820154928401929092526003015460ff16151560608301529083529092019101610e53565b50508251929350429150506000829003610ecb57600094505050505090565b60005b82811015610f6b57838181518110610ee857610ee8611762565b6020026020010151604001518210158015610f215750838181518110610f1057610f10611762565b602090810291909101015160600151155b15610f5957610f56848281518110610f3b57610f3b611762565b6020026020010151602001518661144c90919063ffffffff16565b94505b80610f638161178e565b915050610ece565b5092949350505050565b600082815260046020526040902060010154610fc35760405162461bcd60e51b815260206004820152600d60248201526c506f6f6c20696e76616c69642160981b60448201526064016103fa565b3360009081526005602090815260408083208584526004909252822060018101546002909101549192909190611006610fff8462015180611502565b429061144c565b905060006004600088815260200190815260200160002060030154905084604051806080016040528089815260200188815260200184815260200160001515815250908060018154018082558091505060019003906000526020600020906004020160009091909190915060008201518160000155602082015181600101556040820151816002015560608201518160030160006101000a81548160ff021916908315150217905550505060006110dd82600a6110c391906118a4565b6110d7866110d18b8a611502565b90611502565b9061150e565b6006546040516323b872dd60e01b8152336004820152306024820152604481018a90529192506001600160a01b0316906323b872dd906064016020604051808303816000875af1158015611135573d6000803e3d6000fd5b505050506040513d601f19601f820116820180604052508101906111599190611740565b506008546040516376f960a160e11b81523360048201526024810183905282916001600160a01b03169063edf2c14290604401600060405180830381600087803b1580156111a657600080fd5b505af11580156111ba573d6000803e3d6000fd5b5050604080518b8152602081018590529081018790528b92503391507f7162984403f6c73c8639375d45a9187dfd04602231bd8e587c415718b5f7e5f99060600160405180910390a3505050505050505050565b600080600080600080600060056000336001600160a01b03166001600160a01b03168152602001908152602001600020805480602002602001604051908101604052809291908181526020016000905b828210156112b7576000848152602090819020604080516080810182526004860290920180548352600180820154848601526002820154928401929092526003015460ff1615156060830152908352909201910161125e565b50508251929350429150600090505b828110156113ab578a8482815181106112e1576112e1611762565b60200260200101516000015103611399576112fd87600161144c565b965061132f84828151811061131457611314611762565b6020026020010151602001518761144c90919063ffffffff16565b955083818151811061134357611343611762565b602002602001015160400151821015801561137c575083818151811061136b5761136b611762565b602090810291909101015160600151155b1561139957611396848281518110610f3b57610f3b611762565b94505b806113a38161178e565b9150506112c6565b50949993985091965091945050505050565b6113c5611458565b6001600160a01b03811661142a5760405162461bcd60e51b815260206004820152602660248201527f4f776e61626c653a206e6577206f776e657220697320746865207a65726f206160448201526564647265737360d01b60648201526084016103fa565b611433816114b2565b50565b600082611443858461151a565b14949350505050565b600061093682846118b0565b6000546001600160a01b0316331461094f5760405162461bcd60e51b815260206004820181905260248201527f4f776e61626c653a2063616c6c6572206973206e6f7420746865206f776e657260448201526064016103fa565b600080546001600160a01b038381166001600160a01b0319831681178455604051919092169283917f8be0079c531659141344cd1fd0a4f28419497f9722a3daafe3b4186f6b6457e09190a35050565b600061093682846118c3565b600061093682846118da565b600081815b845181101561155f5761154b8286838151811061153e5761153e611762565b6020026020010151611567565b9150806115578161178e565b91505061151f565b509392505050565b6000818310611583576000828152602084905260409020610936565b6000838152602083905260409020610936565b6000602082840312156115a857600080fd5b5035919050565b80356001600160a01b03811681146115c657600080fd5b919050565b6000806000806000608086880312156115e357600080fd5b6115ec866115af565b94506020860135935060408601359250606086013567ffffffffffffffff8082111561161757600080fd5b818801915088601f83011261162b57600080fd5b81358181111561163a57600080fd5b8960208260051b850101111561164f57600080fd5b9699959850939650602001949392505050565b60006020828403121561167457600080fd5b610936826115af565b60008060006060848603121561169257600080fd5b61169b846115af565b95602085013595506040909401359392505050565b600080600080608085870312156116c657600080fd5b5050823594602084013594506040840135936060013592509050565b6000806000606084860312156116f757600080fd5b611700846115af565b925061170e602085016115af565b9150604084013590509250925092565b6000806040838503121561173157600080fd5b50508035926020909101359150565b60006020828403121561175257600080fd5b8151801515811461093657600080fd5b634e487b7160e01b600052603260045260246000fd5b634e487b7160e01b600052601160045260246000fd5b6000600182016117a0576117a0611778565b5060010190565b6000602082840312156117b957600080fd5b5051919050565b600181815b808511156117fb5781600019048211156117e1576117e1611778565b808516156117ee57918102915b93841c93908002906117c5565b509250929050565b600082611812575060016109f9565b8161181f575060006109f9565b8160018114611835576002811461183f5761185b565b60019150506109f9565b60ff84111561185057611850611778565b50506001821b6109f9565b5060208310610133831016604e8410600b841016171561187e575081810a6109f9565b61188883836117c0565b806000190482111561189c5761189c611778565b029392505050565b60006109368383611803565b808201808211156109f9576109f9611778565b80820281158282048414176109f9576109f9611778565b6000826118f757634e487b7160e01b600052601260045260246000fd5b50049056fea2646970667358221220fe2caaec0b60eaf51fbd03d7ce9de99b6a72244037e965354ed08a0899a0f60664736f6c6343000814003360806040523480156200001157600080fd5b506040518060400160405280600a815260200169263ab1b5bc9021b7b4b760b11b815250604051806040016040528060028152602001614c4360f01b81525081600390816200006191906200018e565b5060046200007082826200018e565b5050506200008d620000876200009360201b60201c565b62000097565b6200025a565b3390565b600580546001600160a01b038381166001600160a01b0319831681179093556040519116919082907f8be0079c531659141344cd1fd0a4f28419497f9722a3daafe3b4186f6b6457e090600090a35050565b634e487b7160e01b600052604160045260246000fd5b600181811c908216806200011457607f821691505b6020821081036200013557634e487b7160e01b600052602260045260246000fd5b50919050565b601f8211156200018957600081815260208120601f850160051c81016020861015620001645750805b601f850160051c820191505b81811015620001855782815560010162000170565b5050505b505050565b81516001600160401b03811115620001aa57620001aa620000e9565b620001c281620001bb8454620000ff565b846200013b565b602080601f831160018114620001fa5760008415620001e15750858301515b600019600386901b1c1916600185901b17855562000185565b600085815260208120601f198616915b828110156200022b578886015182559484019460019091019084016200020a565b50858210156200024a5787850151600019600388901b60f8161c191681555b5050505050600190811b01905550565b6109fb806200026a6000396000f3fe608060405234801561001057600080fd5b50600436106101005760003560e01c80638da5cb5b11610097578063a9059cbb11610066578063a9059cbb14610204578063dd62ed3e14610212578063edf2c14214610225578063f2fde38b1461023857600080fd5b80638da5cb5b146101bb57806395d89b41146101d65780639dc29fac146101de578063a457c2d7146101f157600080fd5b8063313ce567116100d3578063313ce56714610166578063395093511461017557806370a0823114610188578063715018a6146101b157600080fd5b806306fdde0314610105578063095ea7b31461012357806318160ddd1461014657806323b872dd14610158575b600080fd5b61010d61024b565b60405161011a9190610845565b60405180910390f35b6101366101313660046108af565b6102dd565b604051901515815260200161011a565b6002545b60405190815260200161011a565b6101366101003660046108d9565b6040516012815260200161011a565b6101366101833660046108af565b6102f7565b61014a610196366004610915565b6001600160a01b031660009081526020819052604090205490565b6101b9610319565b005b6005546040516001600160a01b03909116815260200161011a565b61010d61032d565b6101b96101ec3660046108af565b61033c565b6101366101ff3660046108af565b61034a565b6101366101003660046108af565b61014a610220366004610937565b6103d5565b6101b96102333660046108af565b610400565b6101b9610246366004610915565b610412565b60606003805461025a9061096a565b80601f01602080910402602001604051908101604052809291908181526020018280546102869061096a565b80156102d35780601f106102a8576101008083540402835291602001916102d3565b820191906000526020600020905b8154815290600101906020018083116102b657829003601f168201915b5050505050905090565b6000336102eb81858561048b565b60019150505b92915050565b6000336102eb81858561030a83836103d5565b61031491906109a4565b61048b565b6103216105b0565b61032b600061060a565b565b60606004805461025a9061096a565b610346828261065c565b5050565b6000338161035882866103d5565b9050838110156103bd5760405162461bcd60e51b815260206004820152602560248201527f45524332303a2064656372656173656420616c6c6f77616e63652062656c6f77604482015264207a65726f60d81b60648201526084015b60405180910390fd5b6103ca828686840361048b565b506001949350505050565b6001600160a01b03918216600090815260016020908152604080832093909416825291909152205490565b6104086105b0565b6103468282610786565b61041a6105b0565b6001600160a01b03811661047f5760405162461bcd60e51b815260206004820152602660248201527f4f776e61626c653a206e6577206f776e657220697320746865207a65726f206160448201526564647265737360d01b60648201526084016103b4565b6104888161060a565b50565b6001600160a01b0383166104ed5760405162461bcd60e51b8152602060048201526024808201527f45524332303a20617070726f76652066726f6d20746865207a65726f206164646044820152637265737360e01b60648201526084016103b4565b6001600160a01b03821661054e5760405162461bcd60e51b815260206004820152602260248201527f45524332303a20617070726f766520746f20746865207a65726f206164647265604482015261737360f01b60648201526084016103b4565b6001600160a01b0383811660008181526001602090815260408083209487168084529482529182902085905590518481527f8c5be1e5ebec7d5bd14f71427d1e84f3dd0314c0f7b2291e5b200ac8c7c3b92591015b60405180910390a3505050565b6005546001600160a01b0316331461032b5760405162461bcd60e51b815260206004820181905260248201527f4f776e61626c653a2063616c6c6572206973206e6f7420746865206f776e657260448201526064016103b4565b600580546001600160a01b038381166001600160a01b0319831681179093556040519116919082907f8be0079c531659141344cd1fd0a4f28419497f9722a3daafe3b4186f6b6457e090600090a35050565b6001600160a01b0382166106bc5760405162461bcd60e51b815260206004820152602160248201527f45524332303a206275726e2066726f6d20746865207a65726f206164647265736044820152607360f81b60648201526084016103b4565b6001600160a01b038216600090815260208190526040902054818110156107305760405162461bcd60e51b815260206004820152602260248201527f45524332303a206275726e20616d6f756e7420657863656564732062616c616e604482015261636560f01b60648201526084016103b4565b6001600160a01b0383166000818152602081815260408083208686039055600280548790039055518581529192917fddf252ad1be2c89b69c2b068fc378daa952ba7f163c4a11628f55a4df523b3ef91016105a3565b6001600160a01b0382166107dc5760405162461bcd60e51b815260206004820152601f60248201527f45524332303a206d696e7420746f20746865207a65726f20616464726573730060448201526064016103b4565b80600260008282546107ee91906109a4565b90915550506001600160a01b038216600081815260208181526040808320805486019055518481527fddf252ad1be2c89b69c2b068fc378daa952ba7f163c4a11628f55a4df523b3ef910160405180910390a35050565b600060208083528351808285015260005b8181101561087257858101830151858201604001528201610856565b506000604082860101526040601f19601f8301168501019250505092915050565b80356001600160a01b03811681146108aa57600080fd5b919050565b600080604083850312156108c257600080fd5b6108cb83610893565b946020939093013593505050565b6000806000606084860312156108ee57600080fd5b6108f784610893565b925061090560208501610893565b9150604084013590509250925092565b60006020828403121561092757600080fd5b61093082610893565b9392505050565b6000806040838503121561094a57600080fd5b61095383610893565b915061096160208401610893565b90509250929050565b600181811c9082168061097e57607f821691505b60208210810361099e57634e487b7160e01b600052602260045260246000fd5b50919050565b808201808211156102f157634e487b7160e01b600052601160045260246000fdfea264697066735822122091130e9acc9880bddefbe096ca0cd0679244cd806bcad5a10bbf7ddb9d76089c64736f6c63430008140033",
    "linkReferences": {}
  },
  "methodIdentifiers": {
    "addPool(uint256,uint256,uint256,uint256)": "b7c7c4e0",
    "balanceOf(address)": "70a08231",
    "claim(address,uint256,uint256,bytes32[])": "172bd6de",
    "deposit(uint256,uint256)": "e2bbb158",
    "getDepositByPoolId(uint256)": "edb4e5ac",
    "getGiveOutAddress()": "8c6e2e77",
    "getLpAddress()": "d1e9a5fd",
    "getLpBalance()": "8421403d",
    "getManagerAddress()": "c162d7da",
    "getPoolById(uint256)": "0bc59b38",
    "getValidWithdrawLp()": "b8cdff18",
    "isClaimed(address,address,uint256)": "d12acf73",
    "merkleRoot()": "2eb4a7ab",
    "owner()": "8da5cb5b",
    "renounceOwnership()": "715018a6",
    "setGiveOutAddress(address)": "7610fbe7",
    "setLpAddress(address)": "6f5e0212",
    "setManagerAddress(address)": "41431908",
    "setMerkleRoot(bytes32)": "7cb64759",
    "sysTransfer(address,uint256,uint256)": "b3f48f49",
    "transferOwnership(address)": "f2fde38b",
    "withdraw()": "3ccfd60b",
    "withdrawAllLp()": "8c538ed4",
    "withdrawToken(address)": "89476069"
  },
  "id": 7
}