{
  "abi": [
    {
      "inputs": [],
      "stateMutability": "nonpayable",
      "type": "constructor"
    },
    {
      "anonymous": false,
      "inputs": [
        {
          "indexed": true,
          "internalType": "address",
          "name": "owner",
          "type": "address"
        },
        {
          "indexed": true,
          "internalType": "address",
          "name": "spender",
          "type": "address"
        },
        {
          "indexed": false,
          "internalType": "uint256",
          "name": "value",
          "type": "uint256"
        }
      ],
      "name": "Approval",
      "type": "event"
    },
    {
      "anonymous": false,
      "inputs": [
        {
          "indexed": true,
          "internalType": "address",
          "name": "user",
          "type": "address"
        },
        {
          "indexed": true,
          "internalType": "uint256",
          "name": "pid",
          "type": "uint256"
        },
        {
          "indexed": false,
          "internalType": "uint256",
          "name": "amount",
          "type": "uint256"
        }
      ],
      "name": "Deposit",
      "type": "event"
    },
    {
      "anonymous": false,
      "inputs": [
        {
          "indexed": true,
          "internalType": "address",
          "name": "from",
          "type": "address"
        },
        {
          "indexed": true,
          "internalType": "address",
          "name": "to",
          "type": "address"
        },
        {
          "indexed": false,
          "internalType": "uint256",
          "name": "value",
          "type": "uint256"
        }
      ],
      "name": "Transfer",
      "type": "event"
    },
    {
      "anonymous": false,
      "inputs": [
        {
          "indexed": true,
          "internalType": "address",
          "name": "user",
          "type": "address"
        },
        {
          "indexed": false,
          "internalType": "uint256",
          "name": "amount",
          "type": "uint256"
        }
      ],
      "name": "Withdraw",
      "type": "event"
    },
    {
      "inputs": [
        {
          "internalType": "uint256",
          "name": "_pid",
          "type": "uint256"
        },
        {
          "internalType": "uint256",
          "name": "secondTotal",
          "type": "uint256"
        }
      ],
      "name": "addPool",
      "outputs": [],
      "stateMutability": "nonpayable",
      "type": "function"
    },
    {
      "inputs": [
        {
          "internalType": "address",
          "name": "owner",
          "type": "address"
        },
        {
          "internalType": "address",
          "name": "spender",
          "type": "address"
        }
      ],
      "name": "allowance",
      "outputs": [
        {
          "internalType": "uint256",
          "name": "",
          "type": "uint256"
        }
      ],
      "stateMutability": "view",
      "type": "function"
    },
    {
      "inputs": [
        {
          "internalType": "address",
          "name": "spender",
          "type": "address"
        },
        {
          "internalType": "uint256",
          "name": "amount",
          "type": "uint256"
        }
      ],
      "name": "approve",
      "outputs": [
        {
          "internalType": "bool",
          "name": "",
          "type": "bool"
        }
      ],
      "stateMutability": "nonpayable",
      "type": "function"
    },
    {
      "inputs": [
        {
          "internalType": "address",
          "name": "account",
          "type": "address"
        }
      ],
      "name": "balanceOf",
      "outputs": [
        {
          "internalType": "uint256",
          "name": "",
          "type": "uint256"
        }
      ],
      "stateMutability": "view",
      "type": "function"
    },
    {
      "inputs": [],
      "name": "decimals",
      "outputs": [
        {
          "internalType": "uint8",
          "name": "",
          "type": "uint8"
        }
      ],
      "stateMutability": "view",
      "type": "function"
    },
    {
      "inputs": [
        {
          "internalType": "address",
          "name": "spender",
          "type": "address"
        },
        {
          "internalType": "uint256",
          "name": "subtractedValue",
          "type": "uint256"
        }
      ],
      "name": "decreaseAllowance",
      "outputs": [
        {
          "internalType": "bool",
          "name": "",
          "type": "bool"
        }
      ],
      "stateMutability": "nonpayable",
      "type": "function"
    },
    {
      "inputs": [
        {
          "internalType": "uint256",
          "name": "_pid",
          "type": "uint256"
        },
        {
          "internalType": "uint256",
          "name": "_amount",
          "type": "uint256"
        }
      ],
      "name": "deposit",
      "outputs": [],
      "stateMutability": "nonpayable",
      "type": "function"
    },
    {
      "inputs": [],
      "name": "getLpBalance",
      "outputs": [
        {
          "internalType": "uint256",
          "name": "",
          "type": "uint256"
        }
      ],
      "stateMutability": "nonpayable",
      "type": "function"
    },
    {
      "inputs": [
        {
          "internalType": "address",
          "name": "spender",
          "type": "address"
        },
        {
          "internalType": "uint256",
          "name": "addedValue",
          "type": "uint256"
        }
      ],
      "name": "increaseAllowance",
      "outputs": [
        {
          "internalType": "bool",
          "name": "",
          "type": "bool"
        }
      ],
      "stateMutability": "nonpayable",
      "type": "function"
    },
    {
      "inputs": [],
      "name": "lpAddress",
      "outputs": [
        {
          "internalType": "address",
          "name": "",
          "type": "address"
        }
      ],
      "stateMutability": "view",
      "type": "function"
    },
    {
      "inputs": [],
      "name": "name",
      "outputs": [
        {
          "internalType": "string",
          "name": "",
          "type": "string"
        }
      ],
      "stateMutability": "view",
      "type": "function"
    },
    {
      "inputs": [
        {
          "internalType": "uint256",
          "name": "",
          "type": "uint256"
        }
      ],
      "name": "poolInfo",
      "outputs": [
        {
          "internalType": "uint256",
          "name": "id",
          "type": "uint256"
        },
        {
          "internalType": "uint256",
          "name": "secondTotal",
          "type": "uint256"
        }
      ],
      "stateMutability": "view",
      "type": "function"
    },
    {
      "inputs": [],
      "name": "symbol",
      "outputs": [
        {
          "internalType": "string",
          "name": "",
          "type": "string"
        }
      ],
      "stateMutability": "view",
      "type": "function"
    },
    {
      "inputs": [],
      "name": "totalSupply",
      "outputs": [
        {
          "internalType": "uint256",
          "name": "",
          "type": "uint256"
        }
      ],
      "stateMutability": "view",
      "type": "function"
    },
    {
      "inputs": [
        {
          "internalType": "address",
          "name": "to",
          "type": "address"
        },
        {
          "internalType": "uint256",
          "name": "amount",
          "type": "uint256"
        }
      ],
      "name": "transfer",
      "outputs": [
        {
          "internalType": "bool",
          "name": "",
          "type": "bool"
        }
      ],
      "stateMutability": "nonpayable",
      "type": "function"
    },
    {
      "inputs": [
        {
          "internalType": "address",
          "name": "from",
          "type": "address"
        },
        {
          "internalType": "address",
          "name": "to",
          "type": "address"
        },
        {
          "internalType": "uint256",
          "name": "amount",
          "type": "uint256"
        }
      ],
      "name": "transferFrom",
      "outputs": [
        {
          "internalType": "bool",
          "name": "",
          "type": "bool"
        }
      ],
      "stateMutability": "nonpayable",
      "type": "function"
    },
    {
      "inputs": [],
      "name": "withdraw",
      "outputs": [],
      "stateMutability": "nonpayable",
      "type": "function"
    }
  ],
  "bytecode": {
    "object": "0x6080604052600780546001600160a01b03191673eb7791dde771d7e769d71fb0bd97408045c06f7717905560016009553480156200003c57600080fd5b5060405180604001604052806004815260200163076654c760e41b81525060405180604001604052806004815260200163056654c760e41b815250816003908162000088919062000258565b50600462000097828262000258565b5050600880546001600160a01b0319163317905550620000b6620000bc565b62000324565b620000cc600162015180620000ee565b620000dc60016203f480620000ee565b620000ec600162093a80620000ee565b565b6008546001600160a01b031633146200013b5760405162461bcd60e51b815260206004820152600b60248201526a37b7363c9036b0b733b2b960a91b604482015260640160405180910390fd5b60408051808201909152918252602082019081526005805460018101825560009190915291517f036b6384b5eca791c62761152d0c79bb0604c104a5fb6f4eb0703f3154bb3db0600290930292830155517f036b6384b5eca791c62761152d0c79bb0604c104a5fb6f4eb0703f3154bb3db190910155565b634e487b7160e01b600052604160045260246000fd5b600181811c90821680620001de57607f821691505b602082108103620001ff57634e487b7160e01b600052602260045260246000fd5b50919050565b601f8211156200025357600081815260208120601f850160051c810160208610156200022e5750805b601f850160051c820191505b818110156200024f578281556001016200023a565b5050505b505050565b81516001600160401b03811115620002745762000274620001b3565b6200028c81620002858454620001c9565b8462000205565b602080601f831160018114620002c45760008415620002ab5750858301515b600019600386901b1c1916600185901b1785556200024f565b600085815260208120601f198616915b82811015620002f557888601518255948401946001909101908401620002d4565b5085821015620003145787850151600019600388901b60f8161c191681555b5050505050600190811b01905550565b6110c980620003346000396000f3fe608060405234801561001057600080fd5b506004361061010b5760003560e01c80636d89dbc5116100a25780639b4dc8cc116100715780639b4dc8cc14610216578063a457c2d714610241578063a9059cbb14610254578063dd62ed3e14610267578063e2bbb1581461027a57600080fd5b80636d89dbc5146101ca57806370a08231146101dd5780638421403d1461020657806395d89b411461020e57600080fd5b806323b872dd116100de57806323b872dd1461018b578063313ce5671461019e57806339509351146101ad5780633ccfd60b146101c057600080fd5b806306fdde0314610110578063095ea7b31461012e5780631526fe271461015157806318160ddd14610179575b600080fd5b61011861028d565b6040516101259190610e66565b60405180910390f35b61014161013c366004610ed0565b61031f565b6040519015158152602001610125565b61016461015f366004610efa565b610339565b60408051928352602083019190915201610125565b6002545b604051908152602001610125565b610141610199366004610f13565b610367565b60405160128152602001610125565b6101416101bb366004610ed0565b61038b565b6101c86103ad565b005b6101c86101d8366004610f4f565b610640565b61017d6101eb366004610f71565b6001600160a01b031660009081526020819052604090205490565b61017d610700565b6101186107be565b600754610229906001600160a01b031681565b6040516001600160a01b039091168152602001610125565b61014161024f366004610ed0565b6107cd565b610141610262366004610ed0565b610848565b61017d610275366004610f93565b610856565b6101c8610288366004610f4f565b610881565b60606003805461029c90610fc6565b80601f01602080910402602001604051908101604052809291908181526020018280546102c890610fc6565b80156103155780601f106102ea57610100808354040283529160200191610315565b820191906000526020600020905b8154815290600101906020018083116102f857829003601f168201915b5050505050905090565b60003361032d818585610a02565b60019150505b92915050565b6005818154811061034957600080fd5b60009182526020909120600290910201805460019091015490915082565b600033610375858285610b26565b610380858585610ba0565b506001949350505050565b60003361032d81858561039e8383610856565b6103a89190611016565b610a02565b6009546001146103ed5760405162461bcd60e51b81526020600482015260066024820152651313d0d2d15160d21b60448201526064015b60405180910390fd5b60006009819055338152600660205260408120904290805b60055481101561058a5760008460006005848154811061042757610427611029565b90600052602060002090600202016000015481526020019081526020016000208054905090508060000361045b5750610578565b60008560006005858154811061047357610473611029565b9060005260206000209060020201600001548152602001908152602001600020805480602002602001604051908101604052809291908181526020016000905b828210156104f9578382906000526020600020906002020160405180604001604052908160008201548152602001600182015481525050815260200190600101906104b3565b505050509050600092505b818310156105755780838151811061051e5761051e611029565b60200260200101516020015185106105635761056081848151811061054557610545611029565b60200260200101516000015185610d4490919063ffffffff16565b93505b8261056d8161103f565b935050610504565b50505b806105828161103f565b915050610405565b5060075460405163a9059cbb60e01b8152336004820152602481018390526001600160a01b039091169063a9059cbb906044016020604051808303816000875af11580156105dc573d6000803e3d6000fd5b505050506040513d601f19601f820116820180604052508101906106009190611058565b5060405181815233907f884edad9ce6fa2440d8a54cc123490eb96d2768479d49ff9c7366125a94243649060200160405180910390a25050600160095550565b6008546001600160a01b031633146106885760405162461bcd60e51b815260206004820152600b60248201526a37b7363c9036b0b733b2b960a91b60448201526064016103e4565b60408051808201909152918252602082019081526005805460018101825560009190915291517f036b6384b5eca791c62761152d0c79bb0604c104a5fb6f4eb0703f3154bb3db0600290930292830155517f036b6384b5eca791c62761152d0c79bb0604c104a5fb6f4eb0703f3154bb3db190910155565b6008546000906001600160a01b0316331461074b5760405162461bcd60e51b815260206004820152600b60248201526a37b7363c9036b0b733b2b960a91b60448201526064016103e4565b6007546040516370a0823160e01b81523060048201526000916001600160a01b0316906370a0823190602401602060405180830381865afa158015610794573d6000803e3d6000fd5b505050506040513d601f19601f820116820180604052508101906107b8919061107a565b91505090565b60606004805461029c90610fc6565b600033816107db8286610856565b90508381101561083b5760405162461bcd60e51b815260206004820152602560248201527f45524332303a2064656372656173656420616c6c6f77616e63652062656c6f77604482015264207a65726f60d81b60648201526084016103e4565b6103808286868403610a02565b60003361032d818585610ba0565b6001600160a01b03918216600090815260016020908152604080832093909416825291909152205490565b6009546001146108bc5760405162461bcd60e51b81526020600482015260066024820152651313d0d2d15160d21b60448201526064016103e4565b60006009819055338152600660209081526040808320858452909152812060058054919291859081106108f1576108f1611029565b6000918252602080832060029283020160019081015460408051808201825289815280850183815289548086018b558a895295909720905194909502909401928355935191015560075490516323b872dd60e01b8152336004820152306024820152604481018690529192506001600160a01b0316906323b872dd906064016020604051808303816000875af115801561098f573d6000803e3d6000fd5b505050506040513d601f19601f820116820180604052508101906109b39190611058565b50826109bf3382610d99565b604051848152859033907f90890809c654f11d6e72a28fa60149770a0d11ec6c92319d6ceb2bb0a4ea1a159060200160405180910390a350506001600955505050565b6001600160a01b038316610a645760405162461bcd60e51b8152602060048201526024808201527f45524332303a20617070726f76652066726f6d20746865207a65726f206164646044820152637265737360e01b60648201526084016103e4565b6001600160a01b038216610ac55760405162461bcd60e51b815260206004820152602260248201527f45524332303a20617070726f766520746f20746865207a65726f206164647265604482015261737360f01b60648201526084016103e4565b6001600160a01b0383811660008181526001602090815260408083209487168084529482529182902085905590518481527f8c5be1e5ebec7d5bd14f71427d1e84f3dd0314c0f7b2291e5b200ac8c7c3b925910160405180910390a3505050565b6000610b328484610856565b90506000198114610b9a5781811015610b8d5760405162461bcd60e51b815260206004820152601d60248201527f45524332303a20696e73756666696369656e7420616c6c6f77616e636500000060448201526064016103e4565b610b9a8484848403610a02565b50505050565b6001600160a01b038316610c045760405162461bcd60e51b815260206004820152602560248201527f45524332303a207472616e736665722066726f6d20746865207a65726f206164604482015264647265737360d81b60648201526084016103e4565b6001600160a01b038216610c665760405162461bcd60e51b815260206004820152602360248201527f45524332303a207472616e7366657220746f20746865207a65726f206164647260448201526265737360e81b60648201526084016103e4565b6001600160a01b03831660009081526020819052604090205481811015610cde5760405162461bcd60e51b815260206004820152602660248201527f45524332303a207472616e7366657220616d6f756e7420657863656564732062604482015265616c616e636560d01b60648201526084016103e4565b6001600160a01b03848116600081815260208181526040808320878703905593871680835291849020805487019055925185815290927fddf252ad1be2c89b69c2b068fc378daa952ba7f163c4a11628f55a4df523b3ef910160405180910390a3610b9a565b600082610d518382611016565b91508110156103335760405162461bcd60e51b815260206004820152601460248201527364732d6d6174682d6164642d6f766572666c6f7760601b60448201526064016103e4565b610da38282610da7565b5050565b6001600160a01b038216610dfd5760405162461bcd60e51b815260206004820152601f60248201527f45524332303a206d696e7420746f20746865207a65726f20616464726573730060448201526064016103e4565b8060026000828254610e0f9190611016565b90915550506001600160a01b038216600081815260208181526040808320805486019055518481527fddf252ad1be2c89b69c2b068fc378daa952ba7f163c4a11628f55a4df523b3ef910160405180910390a35050565b600060208083528351808285015260005b81811015610e9357858101830151858201604001528201610e77565b506000604082860101526040601f19601f8301168501019250505092915050565b80356001600160a01b0381168114610ecb57600080fd5b919050565b60008060408385031215610ee357600080fd5b610eec83610eb4565b946020939093013593505050565b600060208284031215610f0c57600080fd5b5035919050565b600080600060608486031215610f2857600080fd5b610f3184610eb4565b9250610f3f60208501610eb4565b9150604084013590509250925092565b60008060408385031215610f6257600080fd5b50508035926020909101359150565b600060208284031215610f8357600080fd5b610f8c82610eb4565b9392505050565b60008060408385031215610fa657600080fd5b610faf83610eb4565b9150610fbd60208401610eb4565b90509250929050565b600181811c90821680610fda57607f821691505b602082108103610ffa57634e487b7160e01b600052602260045260246000fd5b50919050565b634e487b7160e01b600052601160045260246000fd5b8082018082111561033357610333611000565b634e487b7160e01b600052603260045260246000fd5b60006001820161105157611051611000565b5060010190565b60006020828403121561106a57600080fd5b81518015158114610f8c57600080fd5b60006020828403121561108c57600080fd5b505191905056fea2646970667358221220a2bf3a4815ec5cf0705f482816d7625b97baeabd066d6d4e1956657f9cef6e7264736f6c63430008140033",
    "linkReferences": {}
  },
  "methodIdentifiers": {
    "addPool(uint256,uint256)": "6d89dbc5",
    "allowance(address,address)": "dd62ed3e",
    "approve(address,uint256)": "095ea7b3",
    "balanceOf(address)": "70a08231",
    "decimals()": "313ce567",
    "decreaseAllowance(address,uint256)": "a457c2d7",
    "deposit(uint256,uint256)": "e2bbb158",
    "getLpBalance()": "8421403d",
    "increaseAllowance(address,uint256)": "39509351",
    "lpAddress()": "9b4dc8cc",
    "name()": "06fdde03",
    "poolInfo(uint256)": "1526fe27",
    "symbol()": "95d89b41",
    "totalSupply()": "18160ddd",
    "transfer(address,uint256)": "a9059cbb",
    "transferFrom(address,address,uint256)": "23b872dd",
    "withdraw()": "3ccfd60b"
  },
  "id": 6
}