{
  "abi": [
    {
      "inputs": [],
      "stateMutability": "nonpayable",
      "type": "constructor"
    },
    {
      "anonymous": false,
      "inputs": [
        {
          "indexed": true,
          "internalType": "address",
          "name": "previousOwner",
          "type": "address"
        },
        {
          "indexed": true,
          "internalType": "address",
          "name": "newOwner",
          "type": "address"
        }
      ],
      "name": "OwnershipTransferred",
      "type": "event"
    },
    {
      "inputs": [
        {
          "internalType": "address",
          "name": "_token",
          "type": "address"
        },
        {
          "internalType": "uint256",
          "name": "_amount",
          "type": "uint256"
        },
        {
          "internalType": "uint256",
          "name": "_id",
          "type": "uint256"
        },
        {
          "internalType": "bytes32[]",
          "name": "_proofs",
          "type": "bytes32[]"
        }
      ],
      "name": "claim",
      "outputs": [],
      "stateMutability": "nonpayable",
      "type": "function"
    },
    {
      "inputs": [],
      "name": "getGiveOutAddress",
      "outputs": [
        {
          "internalType": "address",
          "name": "",
          "type": "address"
        }
      ],
      "stateMutability": "view",
      "type": "function"
    },
    {
      "inputs": [
        {
          "internalType": "address",
          "name": "",
          "type": "address"
        },
        {
          "internalType": "address",
          "name": "",
          "type": "address"
        },
        {
          "internalType": "uint256",
          "name": "",
          "type": "uint256"
        }
      ],
      "name": "isClaimed",
      "outputs": [
        {
          "internalType": "bool",
          "name": "",
          "type": "bool"
        }
      ],
      "stateMutability": "view",
      "type": "function"
    },
    {
      "inputs": [],
      "name": "merkleRoot",
      "outputs": [
        {
          "internalType": "bytes32",
          "name": "",
          "type": "bytes32"
        }
      ],
      "stateMutability": "view",
      "type": "function"
    },
    {
      "inputs": [],
      "name": "owner",
      "outputs": [
        {
          "internalType": "address",
          "name": "",
          "type": "address"
        }
      ],
      "stateMutability": "view",
      "type": "function"
    },
    {
      "inputs": [],
      "name": "renounceOwnership",
      "outputs": [],
      "stateMutability": "nonpayable",
      "type": "function"
    },
    {
      "inputs": [
        {
          "internalType": "address",
          "name": "_addr",
          "type": "address"
        }
      ],
      "name": "setGiveOutAddress",
      "outputs": [],
      "stateMutability": "nonpayable",
      "type": "function"
    },
    {
      "inputs": [
        {
          "internalType": "bytes32",
          "name": "_merkleRoot",
          "type": "bytes32"
        }
      ],
      "name": "setMerkleRoot",
      "outputs": [],
      "stateMutability": "nonpayable",
      "type": "function"
    },
    {
      "inputs": [
        {
          "internalType": "address",
          "name": "_token",
          "type": "address"
        },
        {
          "internalType": "uint256",
          "name": "_amount",
          "type": "uint256"
        },
        {
          "internalType": "uint256",
          "name": "_id",
          "type": "uint256"
        }
      ],
      "name": "sysTransfer",
      "outputs": [],
      "stateMutability": "nonpayable",
      "type": "function"
    },
    {
      "inputs": [
        {
          "internalType": "address",
          "name": "newOwner",
          "type": "address"
        }
      ],
      "name": "transferOwnership",
      "outputs": [],
      "stateMutability": "nonpayable",
      "type": "function"
    }
  ],
  "bytecode": {
    "object": "0x608060405234801561001057600080fd5b5061001a33610031565b600380546001600160a01b03191633179055610081565b600080546001600160a01b038381166001600160a01b0319831681178455604051919092169283917f8be0079c531659141344cd1fd0a4f28419497f9722a3daafe3b4186f6b6457e09190a35050565b610971806100906000396000f3fe608060405234801561001057600080fd5b506004361061009e5760003560e01c80638c6e2e77116100665780638c6e2e77146101025780638da5cb5b14610127578063b3f48f4914610138578063d12acf731461014b578063f2fde38b1461018f57600080fd5b8063172bd6de146100a35780632eb4a7ab146100b8578063715018a6146100d45780637610fbe7146100dc5780637cb64759146100ef575b600080fd5b6100b66100b13660046107a2565b6101a2565b005b6100c160015481565b6040519081526020015b60405180910390f35b6100b66103d4565b6100b66100ea366004610839565b6103e8565b6100b66100fd366004610854565b610412565b6003546001600160a01b03165b6040516001600160a01b0390911681526020016100cb565b6000546001600160a01b031661010f565b6100b661014636600461086d565b61041f565b61017f6101593660046108a0565b600260209081526000938452604080852082529284528284209052825290205460ff1681565b60405190151581526020016100cb565b6100b661019d366004610839565b6105ce565b3360009081526002602090815260408083206001600160a01b0389168452825280832086845290915290205460ff16156102165760405162461bcd60e51b815260206004820152601060248201526f416c726561647920636c61696d65642160801b60448201526064015b60405180910390fd5b6040516bffffffffffffffffffffffff1933606090811b8216602084015287901b16603482015260488101859052606881018490526000906088016040516020818303038152906040528051906020012090506102aa838380806020026020016040519081016040528093929190818152602001838360200280828437600092019190915250506001549150849050610647565b6102eb5760405162461bcd60e51b815260206004820152601260248201527156616c69646174696f6e206661696c65642160701b604482015260640161020d565b3360008181526002602090815260408083206001600160a01b038b1680855290835281842089855290925291829020805460ff19166001179055905163a9059cbb60e01b81526004810192909252602482018790529063a9059cbb906044016020604051808303816000875af1158015610369573d6000803e3d6000fd5b505050506040513d601f19601f8201168201806040525081019061038d91906108dc565b6103cc5760405162461bcd60e51b815260206004820152601060248201526f5472616e73666572206661696c65642160801b604482015260640161020d565b505050505050565b6103dc61065d565b6103e660006106b7565b565b6103f061065d565b600380546001600160a01b0319166001600160a01b0392909216919091179055565b61041a61065d565b600155565b6003546001600160a01b031633146104795760405162461bcd60e51b815260206004820152601760248201527f466976654f75744164647265737320696e76616c696421000000000000000000604482015260640161020d565b3360009081526002602090815260408083206001600160a01b0387168452825280832084845290915290205460ff16156104e85760405162461bcd60e51b815260206004820152601060248201526f416c726561647920636c61696d65642160801b604482015260640161020d565b3360008181526002602090815260408083206001600160a01b03881680855290835281842086855290925291829020805460ff19166001179055905163a9059cbb60e01b81526004810192909252602482018490529063a9059cbb906044016020604051808303816000875af1158015610566573d6000803e3d6000fd5b505050506040513d601f19601f8201168201806040525081019061058a91906108dc565b6105c95760405162461bcd60e51b815260206004820152601060248201526f5472616e73666572206661696c65642160801b604482015260640161020d565b505050565b6105d661065d565b6001600160a01b03811661063b5760405162461bcd60e51b815260206004820152602660248201527f4f776e61626c653a206e6577206f776e657220697320746865207a65726f206160448201526564647265737360d01b606482015260840161020d565b610644816106b7565b50565b6000826106548584610707565b14949350505050565b6000546001600160a01b031633146103e65760405162461bcd60e51b815260206004820181905260248201527f4f776e61626c653a2063616c6c6572206973206e6f7420746865206f776e6572604482015260640161020d565b600080546001600160a01b038381166001600160a01b0319831681178455604051919092169283917f8be0079c531659141344cd1fd0a4f28419497f9722a3daafe3b4186f6b6457e09190a35050565b600081815b845181101561074c576107388286838151811061072b5761072b6108fe565b6020026020010151610754565b91508061074481610914565b91505061070c565b509392505050565b600081831061077057600082815260208490526040902061077f565b60008381526020839052604090205b9392505050565b80356001600160a01b038116811461079d57600080fd5b919050565b6000806000806000608086880312156107ba57600080fd5b6107c386610786565b94506020860135935060408601359250606086013567ffffffffffffffff808211156107ee57600080fd5b818801915088601f83011261080257600080fd5b81358181111561081157600080fd5b8960208260051b850101111561082657600080fd5b9699959850939650602001949392505050565b60006020828403121561084b57600080fd5b61077f82610786565b60006020828403121561086657600080fd5b5035919050565b60008060006060848603121561088257600080fd5b61088b84610786565b95602085013595506040909401359392505050565b6000806000606084860312156108b557600080fd5b6108be84610786565b92506108cc60208501610786565b9150604084013590509250925092565b6000602082840312156108ee57600080fd5b8151801515811461077f57600080fd5b634e487b7160e01b600052603260045260246000fd5b60006001820161093457634e487b7160e01b600052601160045260246000fd5b506001019056fea26469706673582212203e231df2a91fa0445b37d7ddda3c0574cd2351ce02f5e407849955df0939b30f64736f6c63430008140033",
    "linkReferences": {}
  },
  "methodIdentifiers": {
    "claim(address,uint256,uint256,bytes32[])": "172bd6de",
    "getGiveOutAddress()": "8c6e2e77",
    "isClaimed(address,address,uint256)": "d12acf73",
    "merkleRoot()": "2eb4a7ab",
    "owner()": "8da5cb5b",
    "renounceOwnership()": "715018a6",
    "setGiveOutAddress(address)": "7610fbe7",
    "setMerkleRoot(bytes32)": "7cb64759",
    "sysTransfer(address,uint256,uint256)": "b3f48f49",
    "transferOwnership(address)": "f2fde38b"
  },
  "id": 8
}