{
  "abi": [
    {
      "inputs": [],
      "stateMutability": "nonpayable",
      "type": "constructor"
    },
    {
      "inputs": [
        {
          "internalType": "uint256",
          "name": "index",
          "type": "uint256"
        }
      ],
      "name": "_isClaimed",
      "outputs": [
        {
          "internalType": "bool",
          "name": "",
          "type": "bool"
        }
      ],
      "stateMutability": "view",
      "type": "function"
    },
    {
      "inputs": [],
      "name": "merkleRoot",
      "outputs": [
        {
          "internalType": "bytes32",
          "name": "",
          "type": "bytes32"
        }
      ],
      "stateMutability": "view",
      "type": "function"
    },
    {
      "inputs": [
        {
          "internalType": "address",
          "name": "_token",
          "type": "address"
        },
        {
          "internalType": "uint256",
          "name": "_amount",
          "type": "uint256"
        },
        {
          "internalType": "uint256",
          "name": "_id",
          "type": "uint256"
        },
        {
          "internalType": "bytes32[]",
          "name": "_proofs",
          "type": "bytes32[]"
        }
      ],
      "name": "withdraw",
      "outputs": [],
      "stateMutability": "nonpayable",
      "type": "function"
    }
  ],
  "bytecode": {
    "object": "0x608060405234801561001057600080fd5b507fbe27f4c175c0bbc6394076c150619580a3ef12fb294ccb31195ce56dfcbf2a9d6000556103c7806100446000396000f3fe608060405234801561001057600080fd5b50600436106100415760003560e01c80632eb4a7ab146100465780635d07b3cf1461006257806393a2f9c714610085575b600080fd5b61004f60005481565b6040519081526020015b60405180910390f35b610075610070366004610258565b61009a565b6040519015158152602001610059565b610098610093366004610271565b6100e5565b005b6000806100a96101008461032c565b905060006100b961010085610340565b6000805481526001602081815260408084209684529590529390205492901b9182169091149392505050565b6040516bffffffffffffffffffffffff1933606090811b8216602084015287901b166034820152604881018590526068810184905260009060880160405160208183030381529060405280519060200120905061017783838080602002602001604051908101604052809392919081815260200183836020028082843760009201829052505492508591506101c39050565b6101bb5760405162461bcd60e51b815260206004820152601160248201527015985b1a59185d1a5bdb8819985a5b1959607a1b604482015260640160405180910390fd5b505050505050565b6000826101d085846101d9565b14949350505050565b600081815b845181101561021e5761020a828683815181106101fd576101fd610354565b6020026020010151610226565b9150806102168161036a565b9150506101de565b509392505050565b6000818310610242576000828152602084905260409020610251565b60008381526020839052604090205b9392505050565b60006020828403121561026a57600080fd5b5035919050565b60008060008060006080868803121561028957600080fd5b85356001600160a01b03811681146102a057600080fd5b94506020860135935060408601359250606086013567ffffffffffffffff808211156102cb57600080fd5b818801915088601f8301126102df57600080fd5b8135818111156102ee57600080fd5b8960208260051b850101111561030357600080fd5b9699959850939650602001949392505050565b634e487b7160e01b600052601260045260246000fd5b60008261033b5761033b610316565b500490565b60008261034f5761034f610316565b500690565b634e487b7160e01b600052603260045260246000fd5b60006001820161038a57634e487b7160e01b600052601160045260246000fd5b506001019056fea2646970667358221220dcd645182d61eddb258aba332859a5dbde5fc817e8d77db27a71ccf2d6fec2cf64736f6c63430008140033",
    "linkReferences": {}
  },
  "methodIdentifiers": {
    "_isClaimed(uint256)": "5d07b3cf",
    "merkleRoot()": "2eb4a7ab",
    "withdraw(address,uint256,uint256,bytes32[])": "93a2f9c7"
  },
  "id": 24
}